{
  "address": "0x69c5db71bb6b7DE5951765216c1FcA66FCA4702b",
  "abi": [
    {
      "anonymous": false,
      "inputs": [
        {
          "indexed": true,
          "internalType": "address",
          "name": "_fei",
          "type": "address"
        }
      ],
      "name": "FeiUpdate",
      "type": "event"
    },
    {
      "anonymous": false,
      "inputs": [
        {
          "indexed": true,
          "internalType": "address",
          "name": "_genesisGroup",
          "type": "address"
        }
      ],
      "name": "GenesisGroupUpdate",
      "type": "event"
    },
    {
      "anonymous": false,
      "inputs": [
        {
          "indexed": false,
          "internalType": "uint256",
          "name": "_timestamp",
          "type": "uint256"
        }
      ],
      "name": "GenesisPeriodComplete",
      "type": "event"
    },
    {
      "anonymous": false,
      "inputs": [
        {
          "indexed": true,
          "internalType": "bytes32",
          "name": "role",
          "type": "bytes32"
        },
        {
          "indexed": true,
          "internalType": "bytes32",
          "name": "previousAdminRole",
          "type": "bytes32"
        },
        {
          "indexed": true,
          "internalType": "bytes32",
          "name": "newAdminRole",
          "type": "bytes32"
        }
      ],
      "name": "RoleAdminChanged",
      "type": "event"
    },
    {
      "anonymous": false,
      "inputs": [
        {
          "indexed": true,
          "internalType": "bytes32",
          "name": "role",
          "type": "bytes32"
        },
        {
          "indexed": true,
          "internalType": "address",
          "name": "account",
          "type": "address"
        },
        {
          "indexed": true,
          "internalType": "address",
          "name": "sender",
          "type": "address"
        }
      ],
      "name": "RoleGranted",
      "type": "event"
    },
    {
      "anonymous": false,
      "inputs": [
        {
          "indexed": true,
          "internalType": "bytes32",
          "name": "role",
          "type": "bytes32"
        },
        {
          "indexed": true,
          "internalType": "address",
          "name": "account",
          "type": "address"
        },
        {
          "indexed": true,
          "internalType": "address",
          "name": "sender",
          "type": "address"
        }
      ],
      "name": "RoleRevoked",
      "type": "event"
    },
    {
      "anonymous": false,
      "inputs": [
        {
          "indexed": true,
          "internalType": "address",
          "name": "_to",
          "type": "address"
        },
        {
          "indexed": false,
          "internalType": "uint256",
          "name": "_amount",
          "type": "uint256"
        }
      ],
      "name": "TribeAllocation",
      "type": "event"
    },
    {
      "anonymous": false,
      "inputs": [
        {
          "indexed": true,
          "internalType": "address",
          "name": "_tribe",
          "type": "address"
        }
      ],
      "name": "TribeUpdate",
      "type": "event"
    },
    {
      "inputs": [],
      "name": "BURNER_ROLE",
      "outputs": [
        {
          "internalType": "bytes32",
          "name": "",
          "type": "bytes32"
        }
      ],
      "stateMutability": "view",
      "type": "function"
    },
    {
      "inputs": [],
      "name": "DEFAULT_ADMIN_ROLE",
      "outputs": [
        {
          "internalType": "bytes32",
          "name": "",
          "type": "bytes32"
        }
      ],
      "stateMutability": "view",
      "type": "function"
    },
    {
      "inputs": [],
      "name": "GOVERN_ROLE",
      "outputs": [
        {
          "internalType": "bytes32",
          "name": "",
          "type": "bytes32"
        }
      ],
      "stateMutability": "view",
      "type": "function"
    },
    {
      "inputs": [],
      "name": "GUARDIAN_ROLE",
      "outputs": [
        {
          "internalType": "bytes32",
          "name": "",
          "type": "bytes32"
        }
      ],
      "stateMutability": "view",
      "type": "function"
    },
    {
      "inputs": [],
      "name": "MINTER_ROLE",
      "outputs": [
        {
          "internalType": "bytes32",
          "name": "",
          "type": "bytes32"
        }
      ],
      "stateMutability": "view",
      "type": "function"
    },
    {
      "inputs": [],
      "name": "PCV_CONTROLLER_ROLE",
      "outputs": [
        {
          "internalType": "bytes32",
          "name": "",
          "type": "bytes32"
        }
      ],
      "stateMutability": "view",
      "type": "function"
    },
    {
      "inputs": [
        {
          "internalType": "address",
          "name": "to",
          "type": "address"
        },
        {
          "internalType": "uint256",
          "name": "amount",
          "type": "uint256"
        }
      ],
      "name": "allocateTribe",
      "outputs": [],
      "stateMutability": "nonpayable",
      "type": "function"
    },
    {
      "inputs": [
        {
          "internalType": "bytes32",
          "name": "role",
          "type": "bytes32"
        },
        {
          "internalType": "bytes32",
          "name": "adminRole",
          "type": "bytes32"
        }
      ],
      "name": "createRole",
      "outputs": [],
      "stateMutability": "nonpayable",
      "type": "function"
    },
    {
      "inputs": [],
      "name": "fei",
      "outputs": [
        {
          "internalType": "contract IFei",
          "name": "",
          "type": "address"
        }
      ],
      "stateMutability": "view",
      "type": "function"
    },
    {
      "inputs": [
        {
          "internalType": "bytes32",
          "name": "role",
          "type": "bytes32"
        }
      ],
      "name": "getRoleAdmin",
      "outputs": [
        {
          "internalType": "bytes32",
          "name": "",
          "type": "bytes32"
        }
      ],
      "stateMutability": "view",
      "type": "function"
    },
    {
      "inputs": [
        {
          "internalType": "bytes32",
          "name": "role",
          "type": "bytes32"
        },
        {
          "internalType": "uint256",
          "name": "index",
          "type": "uint256"
        }
      ],
      "name": "getRoleMember",
      "outputs": [
        {
          "internalType": "address",
          "name": "",
          "type": "address"
        }
      ],
      "stateMutability": "view",
      "type": "function"
    },
    {
      "inputs": [
        {
          "internalType": "bytes32",
          "name": "role",
          "type": "bytes32"
        }
      ],
      "name": "getRoleMemberCount",
      "outputs": [
        {
          "internalType": "uint256",
          "name": "",
          "type": "uint256"
        }
      ],
      "stateMutability": "view",
      "type": "function"
    },
    {
      "inputs": [
        {
          "internalType": "address",
          "name": "burner",
          "type": "address"
        }
      ],
      "name": "grantBurner",
      "outputs": [],
      "stateMutability": "nonpayable",
      "type": "function"
    },
    {
      "inputs": [
        {
          "internalType": "address",
          "name": "governor",
          "type": "address"
        }
      ],
      "name": "grantGovernor",
      "outputs": [],
      "stateMutability": "nonpayable",
      "type": "function"
    },
    {
      "inputs": [
        {
          "internalType": "address",
          "name": "guardian",
          "type": "address"
        }
      ],
      "name": "grantGuardian",
      "outputs": [],
      "stateMutability": "nonpayable",
      "type": "function"
    },
    {
      "inputs": [
        {
          "internalType": "address",
          "name": "minter",
          "type": "address"
        }
      ],
      "name": "grantMinter",
      "outputs": [],
      "stateMutability": "nonpayable",
      "type": "function"
    },
    {
      "inputs": [
        {
          "internalType": "address",
          "name": "pcvController",
          "type": "address"
        }
      ],
      "name": "grantPCVController",
      "outputs": [],
      "stateMutability": "nonpayable",
      "type": "function"
    },
    {
      "inputs": [
        {
          "internalType": "bytes32",
          "name": "role",
          "type": "bytes32"
        },
        {
          "internalType": "address",
          "name": "account",
          "type": "address"
        }
      ],
      "name": "grantRole",
      "outputs": [],
      "stateMutability": "nonpayable",
      "type": "function"
    },
    {
      "inputs": [
        {
          "internalType": "bytes32",
          "name": "role",
          "type": "bytes32"
        },
        {
          "internalType": "address",
          "name": "account",
          "type": "address"
        }
      ],
      "name": "hasRole",
      "outputs": [
        {
          "internalType": "bool",
          "name": "",
          "type": "bool"
        }
      ],
      "stateMutability": "view",
      "type": "function"
    },
    {
      "inputs": [
        {
          "internalType": "address",
          "name": "_fei",
          "type": "address"
        },
        {
          "internalType": "address",
          "name": "_tribe",
          "type": "address"
        }
      ],
      "name": "init",
      "outputs": [],
      "stateMutability": "nonpayable",
      "type": "function"
    },
    {
      "inputs": [
        {
          "internalType": "address",
          "name": "_address",
          "type": "address"
        }
      ],
      "name": "isBurner",
      "outputs": [
        {
          "internalType": "bool",
          "name": "",
          "type": "bool"
        }
      ],
      "stateMutability": "view",
      "type": "function"
    },
    {
      "inputs": [
        {
          "internalType": "address",
          "name": "_address",
          "type": "address"
        }
      ],
      "name": "isGovernor",
      "outputs": [
        {
          "internalType": "bool",
          "name": "",
          "type": "bool"
        }
      ],
      "stateMutability": "view",
      "type": "function"
    },
    {
      "inputs": [
        {
          "internalType": "address",
          "name": "_address",
          "type": "address"
        }
      ],
      "name": "isGuardian",
      "outputs": [
        {
          "internalType": "bool",
          "name": "",
          "type": "bool"
        }
      ],
      "stateMutability": "view",
      "type": "function"
    },
    {
      "inputs": [
        {
          "internalType": "address",
          "name": "_address",
          "type": "address"
        }
      ],
      "name": "isMinter",
      "outputs": [
        {
          "internalType": "bool",
          "name": "",
          "type": "bool"
        }
      ],
      "stateMutability": "view",
      "type": "function"
    },
    {
      "inputs": [
        {
          "internalType": "address",
          "name": "_address",
          "type": "address"
        }
      ],
      "name": "isPCVController",
      "outputs": [
        {
          "internalType": "bool",
          "name": "",
          "type": "bool"
        }
      ],
      "stateMutability": "view",
      "type": "function"
    },
    {
      "inputs": [
        {
          "internalType": "bytes32",
          "name": "role",
          "type": "bytes32"
        },
        {
          "internalType": "address",
          "name": "account",
          "type": "address"
        }
      ],
      "name": "renounceRole",
      "outputs": [],
      "stateMutability": "nonpayable",
      "type": "function"
    },
    {
      "inputs": [
        {
          "internalType": "address",
          "name": "burner",
          "type": "address"
        }
      ],
      "name": "revokeBurner",
      "outputs": [],
      "stateMutability": "nonpayable",
      "type": "function"
    },
    {
      "inputs": [
        {
          "internalType": "address",
          "name": "governor",
          "type": "address"
        }
      ],
      "name": "revokeGovernor",
      "outputs": [],
      "stateMutability": "nonpayable",
      "type": "function"
    },
    {
      "inputs": [
        {
          "internalType": "address",
          "name": "guardian",
          "type": "address"
        }
      ],
      "name": "revokeGuardian",
      "outputs": [],
      "stateMutability": "nonpayable",
      "type": "function"
    },
    {
      "inputs": [
        {
          "internalType": "address",
          "name": "minter",
          "type": "address"
        }
      ],
      "name": "revokeMinter",
      "outputs": [],
      "stateMutability": "nonpayable",
      "type": "function"
    },
    {
      "inputs": [
        {
          "internalType": "bytes32",
          "name": "role",
          "type": "bytes32"
        },
        {
          "internalType": "address",
          "name": "account",
          "type": "address"
        }
      ],
      "name": "revokeOverride",
      "outputs": [],
      "stateMutability": "nonpayable",
      "type": "function"
    },
    {
      "inputs": [
        {
          "internalType": "address",
          "name": "pcvController",
          "type": "address"
        }
      ],
      "name": "revokePCVController",
      "outputs": [],
      "stateMutability": "nonpayable",
      "type": "function"
    },
    {
      "inputs": [
        {
          "internalType": "bytes32",
          "name": "role",
          "type": "bytes32"
        },
        {
          "internalType": "address",
          "name": "account",
          "type": "address"
        }
      ],
      "name": "revokeRole",
      "outputs": [],
      "stateMutability": "nonpayable",
      "type": "function"
    },
    {
      "inputs": [
        {
          "internalType": "address",
          "name": "token",
          "type": "address"
        }
      ],
      "name": "setFei",
      "outputs": [],
      "stateMutability": "nonpayable",
      "type": "function"
    },
    {
      "inputs": [
        {
          "internalType": "address",
          "name": "token",
          "type": "address"
        }
      ],
      "name": "setTribe",
      "outputs": [],
      "stateMutability": "nonpayable",
      "type": "function"
    },
    {
      "inputs": [
        {
          "internalType": "bytes4",
          "name": "interfaceId",
          "type": "bytes4"
        }
      ],
      "name": "supportsInterface",
      "outputs": [
        {
          "internalType": "bool",
          "name": "",
          "type": "bool"
        }
      ],
      "stateMutability": "view",
      "type": "function"
    },
    {
      "inputs": [],
      "name": "tribe",
      "outputs": [
        {
          "internalType": "contract IERC20",
          "name": "",
          "type": "address"
        }
      ],
      "stateMutability": "view",
      "type": "function"
    }
  ],
  "transactionHash": "0x192d4d7a5110001c6a033d9e90c2a76d7b17fb8a4e83aacc34c3bfcf87cc5b82",
  "args": [],
  "solcInputHash": "a1c9c935ba7246b4f63cdd13d1219e7e",
  "bytecode": "0x60806040523480156200001157600080fd5b506200001d306200012a565b620000587f9f2df0fed2c77648de5860a4cc508cd0818c85b8b8a1ab4ceeef8d981c8956a660008051602062001b3183398151915262000148565b620000937f3c11d16cbaffd01df69ce1c404f6340ee057498f5f00246190ea54220576a84860008051602062001b3183398151915262000148565b620000ce7f0866eae1216ed05a11636a648003f3f62921eb97ccb05acc30636f62958a8bd660008051602062001b3183398151915262000148565b620000e960008051602062001b318339815191528062000148565b620001247f55435dd261a4b9b3364963f7738a7a662ad9c84396d64be3365284bb7f0a504160008051602062001b3183398151915262000148565b620002f8565b6200014560008051602062001b318339815191528262000193565b50565b600082815260208190526040808220600101805490849055905190918391839186917fbd79b86ffe0ab8e8776151514217cd7cacd52c909f66475c3af44e129f0b00ff9190a4505050565b620001aa8282620001d660201b62000d4c1760201c565b6000828152600160209081526040909120620001d191839062000d56620001e6821b17901c565b505050565b620001e2828262000206565b5050565b6000620001fd836001600160a01b038416620002a6565b90505b92915050565b6000828152602081815260408083206001600160a01b038516845290915290205460ff16620001e2576000828152602081815260408083206001600160a01b03851684529091529020805460ff19166001179055620002623390565b6001600160a01b0316816001600160a01b0316837f2f8788117e7eff1d82e926ec794901d17c78024a50270940304540a733656f0d60405160405180910390a45050565b6000818152600183016020526040812054620002ef5750815460018181018455600084815260208082209093018490558454848252828601909352604090209190915562000200565b50600062000200565b61182980620003086000396000f3fe608060405234801561001057600080fd5b50600436106102275760003560e01c80639010d07c11610130578063c1ef303a116100b8578063e0a200461161007c578063e0a20046146104dc578063e43581b8146104f1578063e6eb982f14610504578063eacdd9e814610517578063f09a40161461052a57600080fd5b8063c1ef303a1461047b578063ca15c8731461048e578063cfbd4885146104a1578063d5391393146104b4578063d547741f146104c957600080fd5b8063a217fddf116100ff578063a217fddf14610427578063aa271e1a1461042f578063af648c3d14610442578063b86677fe14610455578063b9022dc01461046857600080fd5b80639010d07c146103bd57806391d14854146103e857806394b1d2c0146103fb5780639a9ba4da1461040e57600080fd5b80632f2ff15d116101b35780634334614a116101825780634334614a1461035e5780634c9f9384146103715780635f06d761146103845780636186943e146103975780638dd92276146103aa57600080fd5b80632f2ff15d1461031057806336568abe1461032357806338b7f44614610336578063395c62e81461034b57600080fd5b806310511f96116101fa57806310511f961461028f578063248a9ca3146102a257806324ea54f4146102d3578063261707fa146102e8578063282c51f3146102fb57600080fd5b806301ffc9a71461022c578063080bf57c146102545780630900cc33146102695780630c68ba211461027c575b600080fd5b61023f61023a36600461157b565b61053d565b60405190151581526020015b60405180910390f35b610267610262366004611538565b610568565b005b61026761027736600461148b565b6106a7565b61023f61028a36600461148b565b6106e7565b61026761029d36600461148b565b610701565b6102c56102b0366004611520565b60009081526020819052604090206001015490565b60405190815260200161024b565b6102c56000805160206117d483398151915281565b6102676102f636600461148b565b61073e565b6102c560008051602061175483398151915281565b61026761031e366004611538565b610777565b610267610331366004611538565b61079e565b6102c560008051602061177483398151915281565b61026761035936600461148b565b6107c0565b61023f61036c36600461148b565b6107fd565b61026761037f36600461155a565b610817565b61026761039236600461148b565b61084a565b61023f6103a536600461148b565b610878565b6102676103b836600461148b565b610892565b6103d06103cb36600461155a565b6108cf565b6040516001600160a01b03909116815260200161024b565b61023f6103f6366004611538565b6108ee565b61026761040936600461148b565b610917565b6002546103d0906201000090046001600160a01b031681565b6102c5600081565b61023f61043d36600461148b565b610954565b61026761045036600461148b565b61096e565b6003546103d0906001600160a01b031681565b61026761047636600461148b565b6109ab565b61026761048936600461148b565b6109d9565b6102c561049c366004611520565b610a16565b6102676104af36600461148b565b610a2d565b6102c560008051602061179483398151915281565b6102676104d7366004611538565b610a66565b6102c56000805160206117b483398151915281565b61023f6104ff36600461148b565b610a70565b61026761051236600461148b565b610a8a565b6102676105253660046114d7565b610ac7565b6102676105383660046114a5565b610c7d565b60006001600160e01b03198216635a05180f60e01b1480610562575061056282610d6b565b92915050565b610571336106e7565b6105d05760405162461bcd60e51b815260206004820152602560248201527f5065726d697373696f6e733a2043616c6c6572206973206e6f74206120677561604482015264393234b0b760d91b60648201526084015b60405180910390fd5b6000805160206117748339815191528214156106435760405162461bcd60e51b815260206004820152602c60248201527f5065726d697373696f6e733a20477561726469616e2063616e6e6f742072657660448201526b37b5b29033b7bb32b93737b960a11b60648201526084016105c7565b60405163d547741f60e01b8152600481018390526001600160a01b0382166024820152309063d547741f90604401600060405180830381600087803b15801561068b57600080fd5b505af115801561069f573d6000803e3d6000fd5b505050505050565b6106b033610a70565b6106cc5760405162461bcd60e51b81526004016105c790611663565b6106e460008051602061175483398151915282610a66565b50565b60006105626000805160206117d4833981519152836108ee565b61070a33610a70565b6107265760405162461bcd60e51b81526004016105c790611663565b6106e460008051602061175483398151915282610777565b61074733610a70565b6107635760405162461bcd60e51b81526004016105c790611663565b6106e4600080516020611794833981519152825b6107818282610da0565b60008281526001602052604090206107999082610d56565b505050565b6107a88282610dc6565b60008281526001602052604090206107999082610e40565b6107c933610a70565b6107e55760405162461bcd60e51b81526004016105c790611663565b6106e460008051602061177483398151915282610777565b6000610562600080516020611754833981519152836108ee565b61082033610a70565b61083c5760405162461bcd60e51b81526004016105c790611663565b6108468282610e55565b5050565b61085333610a70565b61086f5760405162461bcd60e51b81526004016105c790611663565b6106e481610ea0565b60006105626000805160206117b4833981519152836108ee565b61089b33610a70565b6108b75760405162461bcd60e51b81526004016105c790611663565b6106e46000805160206117b483398151915282610a66565b60008281526001602052604081206108e79083610ef4565b9392505050565b6000918252602082815260408084206001600160a01b0393909316845291905290205460ff1690565b61092033610a70565b61093c5760405162461bcd60e51b81526004016105c790611663565b6106e46000805160206117d483398151915282610777565b6000610562600080516020611794833981519152836108ee565b61097733610a70565b6109935760405162461bcd60e51b81526004016105c790611663565b6106e46000805160206117d483398151915282610a66565b6109b433610a70565b6109d05760405162461bcd60e51b81526004016105c790611663565b6106e481610f00565b6109e233610a70565b6109fe5760405162461bcd60e51b81526004016105c790611663565b6106e46000805160206117b483398151915282610777565b600081815260016020526040812061056290610f4a565b610a3633610a70565b610a525760405162461bcd60e51b81526004016105c790611663565b6106e4600080516020611794833981519152825b6107a88282610f54565b6000610562600080516020611774833981519152836108ee565b610a9333610a70565b610aaf5760405162461bcd60e51b81526004016105c790611663565b6106e460008051602061177483398151915282610a66565b610ad033610a70565b610aec5760405162461bcd60e51b81526004016105c790611663565b6003546040516370a0823160e01b81523060048201526001600160a01b0390911690829082906370a082319060240160206040518083038186803b158015610b3357600080fd5b505afa158015610b47573d6000803e3d6000fd5b505050506040513d601f19601f82011682018060405250810190610b6b91906115a3565b1015610bb25760405162461bcd60e51b8152602060048201526016602482015275436f72653a204e6f7420656e6f75676820547269626560501b60448201526064016105c7565b60405163a9059cbb60e01b81526001600160a01b0384811660048301526024820184905282169063a9059cbb90604401602060405180830381600087803b158015610bfc57600080fd5b505af1158015610c10573d6000803e3d6000fd5b505050506040513d601f19601f82011682018060405250810190610c349190611500565b50826001600160a01b03167ffd90a2bc2c0c3cf07693529b256c4173a944fe9f55c1984c09a10a1ad28c116483604051610c7091815260200190565b60405180910390a2505050565b600254610100900460ff1680610c96575060025460ff16155b610cf95760405162461bcd60e51b815260206004820152602e60248201527f496e697469616c697a61626c653a20636f6e747261637420697320616c72656160448201526d191e481a5b9a5d1a585b1a5e995960921b60648201526084016105c7565b600254610100900460ff16158015610d1b576002805461ffff19166101011790555b610d2433610f7a565b610d2d83610ea0565b610d3682610f00565b8015610799576002805461ff0019169055505050565b6108468282610f92565b60006108e7836001600160a01b038416611016565b60006001600160e01b03198216637965db0b60e01b148061056257506301ffc9a760e01b6001600160e01b0319831614610562565b600082815260208190526040902060010154610dbc8133611065565b6107998383610f92565b6001600160a01b0381163314610e365760405162461bcd60e51b815260206004820152602f60248201527f416363657373436f6e74726f6c3a2063616e206f6e6c792072656e6f756e636560448201526e103937b632b9903337b91039b2b63360891b60648201526084016105c7565b61084682826110c9565b60006108e7836001600160a01b03841661112e565b600082815260208190526040808220600101805490849055905190918391839186917fbd79b86ffe0ab8e8776151514217cd7cacd52c909f66475c3af44e129f0b00ff9190a4505050565b6002805462010000600160b01b031916620100006001600160a01b038416908102919091179091556040517fb382b2a2d84e1d7542e0d58950e00d33ddc7a4b379a265768bf3e8640dde4ef190600090a250565b60006108e7838361124b565b600380546001600160a01b0319166001600160a01b0383169081179091556040517f9675664499c8d4f09c5268d1696ba833416ed56d870558fa7a722bb8aff5d90f90600090a250565b6000610562825490565b600082815260208190526040902060010154610f708133611065565b61079983836110c9565b6106e460008051602061177483398151915282611283565b610f9c82826108ee565b610846576000828152602081815260408083206001600160a01b03851684529091529020805460ff19166001179055610fd23390565b6001600160a01b0316816001600160a01b0316837f2f8788117e7eff1d82e926ec794901d17c78024a50270940304540a733656f0d60405160405180910390a45050565b600081815260018301602052604081205461105d57508154600181810184556000848152602080822090930184905584548482528286019093526040902091909155610562565b506000610562565b61106f82826108ee565b61084657611087816001600160a01b0316601461128d565b61109283602061128d565b6040516020016110a39291906115bb565b60408051601f198184030181529082905262461bcd60e51b82526105c791600401611630565b6110d382826108ee565b15610846576000828152602081815260408083206001600160a01b0385168085529252808320805460ff1916905551339285917ff6391f5c32d9c69d2a47ea670b442974b53935d1edc7fd64eb21e047a839171b9190a45050565b600081815260018301602052604081205480156112415760006111526001836116df565b8554909150600090611166906001906116df565b90508181146111e757600086600001828154811061119457634e487b7160e01b600052603260045260246000fd5b90600052602060002001549050808760000184815481106111c557634e487b7160e01b600052603260045260246000fd5b6000918252602080832090910192909255918252600188019052604090208390555b855486908061120657634e487b7160e01b600052603160045260246000fd5b600190038181906000526020600020016000905590558560010160008681526020019081526020016000206000905560019350505050610562565b6000915050610562565b600082600001828154811061127057634e487b7160e01b600052603260045260246000fd5b9060005260206000200154905092915050565b6107818282610d4c565b6060600061129c8360026116c0565b6112a79060026116a8565b67ffffffffffffffff8111156112cd57634e487b7160e01b600052604160045260246000fd5b6040519080825280601f01601f1916602001820160405280156112f7576020820181803683370190505b509050600360fc1b8160008151811061132057634e487b7160e01b600052603260045260246000fd5b60200101906001600160f81b031916908160001a905350600f60fb1b8160018151811061135d57634e487b7160e01b600052603260045260246000fd5b60200101906001600160f81b031916908160001a90535060006113818460026116c0565b61138c9060016116a8565b90505b6001811115611420576f181899199a1a9b1b9c1cb0b131b232b360811b85600f16601081106113ce57634e487b7160e01b600052603260045260246000fd5b1a60f81b8282815181106113f257634e487b7160e01b600052603260045260246000fd5b60200101906001600160f81b031916908160001a90535060049490941c9361141981611726565b905061138f565b5083156108e75760405162461bcd60e51b815260206004820181905260248201527f537472696e67733a20686578206c656e67746820696e73756666696369656e7460448201526064016105c7565b80356001600160a01b038116811461148657600080fd5b919050565b60006020828403121561149c578081fd5b6108e78261146f565b600080604083850312156114b7578081fd5b6114c08361146f565b91506114ce6020840161146f565b90509250929050565b600080604083850312156114e9578182fd5b6114f28361146f565b946020939093013593505050565b600060208284031215611511578081fd5b815180151581146108e7578182fd5b600060208284031215611531578081fd5b5035919050565b6000806040838503121561154a578182fd5b823591506114ce6020840161146f565b6000806040838503121561156c578182fd5b50508035926020909101359150565b60006020828403121561158c578081fd5b81356001600160e01b0319811681146108e7578182fd5b6000602082840312156115b4578081fd5b5051919050565b7f416363657373436f6e74726f6c3a206163636f756e74200000000000000000008152600083516115f38160178501602088016116f6565b7001034b99036b4b9b9b4b733903937b6329607d1b60179184019182015283516116248160288401602088016116f6565b01602801949350505050565b602081526000825180602084015261164f8160408501602087016116f6565b601f01601f19169190910160400192915050565b60208082526025908201527f5065726d697373696f6e733a2043616c6c6572206973206e6f74206120676f7660408201526432b93737b960d91b606082015260800190565b600082198211156116bb576116bb61173d565b500190565b60008160001904831182151516156116da576116da61173d565b500290565b6000828210156116f1576116f161173d565b500390565b60005b838110156117115781810151838201526020016116f9565b83811115611720576000848401525b50505050565b6000816117355761173561173d565b506000190190565b634e487b7160e01b600052601160045260246000fdfe3c11d16cbaffd01df69ce1c404f6340ee057498f5f00246190ea54220576a848899bd46557473cb80307a9dabc297131ced39608330a2d29b2d52b660c03923e9f2df0fed2c77648de5860a4cc508cd0818c85b8b8a1ab4ceeef8d981c8956a60866eae1216ed05a11636a648003f3f62921eb97ccb05acc30636f62958a8bd655435dd261a4b9b3364963f7738a7a662ad9c84396d64be3365284bb7f0a5041a2646970667358221220c9753ee3ca82fa229803a7d383a9760f955c3d40cf2b6be9c66a9de8d2eb1b5664736f6c63430008040033899bd46557473cb80307a9dabc297131ced39608330a2d29b2d52b660c03923e",
  "devdoc": {
    "author": "Fei Protocol",
    "kind": "dev",
    "methods": {
      "allocateTribe(address,uint256)": {
        "params": {
          "amount": "the amount of TRIBE to send",
          "to": "the address to send TRIBE to"
        }
      },
      "createRole(bytes32,bytes32)": {
        "details": "can also be used to update admin of existing role",
        "params": {
          "adminRole": "the admin role id for `role`",
          "role": "the new role id"
        }
      },
      "getRoleAdmin(bytes32)": {
        "details": "Returns the admin role that controls `role`. See {grantRole} and {revokeRole}. To change a role's admin, use {_setRoleAdmin}."
      },
      "getRoleMember(bytes32,uint256)": {
        "details": "Returns one of the accounts that have `role`. `index` must be a value between 0 and {getRoleMemberCount}, non-inclusive. Role bearers are not sorted in any particular way, and their ordering may change at any point. WARNING: When using {getRoleMember} and {getRoleMemberCount}, make sure you perform all queries on the same block. See the following https://forum.openzeppelin.com/t/iterating-over-elements-on-enumerableset-in-openzeppelin-contracts/2296[forum post] for more information."
      },
      "getRoleMemberCount(bytes32)": {
        "details": "Returns the number of accounts that have `role`. Can be used together with {getRoleMember} to enumerate all bearers of a role."
      },
      "grantBurner(address)": {
        "params": {
          "burner": "new burner"
        }
      },
      "grantGovernor(address)": {
        "params": {
          "governor": "new governor"
        }
      },
      "grantGuardian(address)": {
        "params": {
          "guardian": "new guardian"
        }
      },
      "grantMinter(address)": {
        "params": {
          "minter": "new minter"
        }
      },
      "grantPCVController(address)": {
        "params": {
          "pcvController": "new controller"
        }
      },
      "grantRole(bytes32,address)": {
        "details": "Overload {grantRole} to track enumerable memberships"
      },
      "hasRole(bytes32,address)": {
        "details": "Returns `true` if `account` has been granted `role`."
      },
      "isBurner(address)": {
        "params": {
          "_address": "address to check"
        },
        "returns": {
          "_0": "true _address is a burner"
        }
      },
      "isGovernor(address)": {
        "params": {
          "_address": "address to check"
        },
        "returns": {
          "_0": "true _address is a governor"
        }
      },
      "isGuardian(address)": {
        "params": {
          "_address": "address to check"
        },
        "returns": {
          "_0": "true _address is a guardian"
        }
      },
      "isMinter(address)": {
        "params": {
          "_address": "address to check"
        },
        "returns": {
          "_0": "true _address is a minter"
        }
      },
      "isPCVController(address)": {
        "params": {
          "_address": "address to check"
        },
        "returns": {
          "_0": "true _address is a controller"
        }
      },
      "renounceRole(bytes32,address)": {
        "details": "Overload {renounceRole} to track enumerable memberships"
      },
      "revokeBurner(address)": {
        "params": {
          "burner": "ex burner"
        }
      },
      "revokeGovernor(address)": {
        "params": {
          "governor": "ex governor"
        }
      },
      "revokeGuardian(address)": {
        "params": {
          "guardian": "ex guardian"
        }
      },
      "revokeMinter(address)": {
        "params": {
          "minter": "ex minter"
        }
      },
      "revokeOverride(bytes32,address)": {
        "params": {
          "account": "the address to revoke the role from",
          "role": "the role to revoke"
        }
      },
      "revokePCVController(address)": {
        "params": {
          "pcvController": "ex pcvController"
        }
      },
      "revokeRole(bytes32,address)": {
        "details": "Overload {revokeRole} to track enumerable memberships"
      },
      "setFei(address)": {
        "params": {
          "token": "new fei address"
        }
      },
      "setTribe(address)": {
        "params": {
          "token": "new tribe address"
        }
      },
      "supportsInterface(bytes4)": {
        "details": "See {IERC165-supportsInterface}."
      }
    },
    "title": "Source of truth for Fei Protocol",
    "version": 1
  },
  "userdoc": {
    "kind": "user",
    "methods": {
      "allocateTribe(address,uint256)": {
        "notice": "sends TRIBE tokens from treasury to an address"
      },
      "createRole(bytes32,bytes32)": {
        "notice": "creates a new role to be maintained"
      },
      "fei()": {
        "notice": "the address of the FEI contract"
      },
      "grantBurner(address)": {
        "notice": "grants burner role to address"
      },
      "grantGovernor(address)": {
        "notice": "grants governor role to address"
      },
      "grantGuardian(address)": {
        "notice": "grants guardian role to address"
      },
      "grantMinter(address)": {
        "notice": "grants minter role to address"
      },
      "grantPCVController(address)": {
        "notice": "grants controller role to address"
      },
      "isBurner(address)": {
        "notice": "checks if address is a burner"
      },
      "isGovernor(address)": {
        "notice": "checks if address is a governor"
      },
      "isGuardian(address)": {
        "notice": "checks if address is a guardian"
      },
      "isMinter(address)": {
        "notice": "checks if address is a minter"
      },
      "isPCVController(address)": {
        "notice": "checks if address is a controller"
      },
      "revokeBurner(address)": {
        "notice": "revokes burner role from address"
      },
      "revokeGovernor(address)": {
        "notice": "revokes governor role from address"
      },
      "revokeGuardian(address)": {
        "notice": "revokes guardian role from address"
      },
      "revokeMinter(address)": {
        "notice": "revokes minter role from address"
      },
      "revokeOverride(bytes32,address)": {
        "notice": "revokes a role from address"
      },
      "revokePCVController(address)": {
        "notice": "revokes pcvController role from address"
      },
      "setFei(address)": {
        "notice": "sets Fei address to a new address"
      },
      "setTribe(address)": {
        "notice": "sets Tribe address to a new address"
      },
      "tribe()": {
        "notice": "the address of the TRIBE contract"
      }
    },
    "notice": "maintains roles, access control, fei, tribe, genesisGroup, and the TRIBE treasury",
    "version": 1
  },
  "storageLayout": {
    "storage": [
      {
        "astId": 6151,
        "contract": "contracts/core/Core.sol:Core",
        "label": "_roles",
        "offset": 0,
        "slot": "0",
        "type": "t_mapping(t_bytes32,t_struct(RoleData)6146_storage)"
      },
      {
        "astId": 6452,
        "contract": "contracts/core/Core.sol:Core",
        "label": "_roleMembers",
        "offset": 0,
        "slot": "1",
        "type": "t_mapping(t_bytes32,t_struct(AddressSet)14390_storage)"
      },
      {
        "astId": 9960,
        "contract": "contracts/core/Core.sol:Core",
        "label": "_initialized",
        "offset": 0,
        "slot": "2",
        "type": "t_bool"
      },
      {
        "astId": 9963,
        "contract": "contracts/core/Core.sol:Core",
        "label": "_initializing",
        "offset": 1,
        "slot": "2",
        "type": "t_bool"
      },
      {
        "astId": 997,
        "contract": "contracts/core/Core.sol:Core",
        "label": "fei",
        "offset": 2,
        "slot": "2",
        "type": "t_contract(IFei)20502"
      },
      {
        "astId": 1002,
        "contract": "contracts/core/Core.sol:Core",
        "label": "tribe",
        "offset": 0,
        "slot": "3",
        "type": "t_contract(IERC20)10716"
      }
    ],
    "types": {
      "t_address": {
        "encoding": "inplace",
        "label": "address",
        "numberOfBytes": "20"
      },
      "t_array(t_bytes32)dyn_storage": {
        "base": "t_bytes32",
        "encoding": "dynamic_array",
        "label": "bytes32[]",
        "numberOfBytes": "32"
      },
      "t_bool": {
        "encoding": "inplace",
        "label": "bool",
        "numberOfBytes": "1"
      },
      "t_bytes32": {
        "encoding": "inplace",
        "label": "bytes32",
        "numberOfBytes": "32"
      },
      "t_contract(IERC20)10716": {
        "encoding": "inplace",
        "label": "contract IERC20",
        "numberOfBytes": "20"
      },
      "t_contract(IFei)20502": {
        "encoding": "inplace",
        "label": "contract IFei",
        "numberOfBytes": "20"
      },
      "t_mapping(t_address,t_bool)": {
        "encoding": "mapping",
        "key": "t_address",
        "label": "mapping(address => bool)",
        "numberOfBytes": "32",
        "value": "t_bool"
      },
      "t_mapping(t_bytes32,t_struct(AddressSet)14390_storage)": {
        "encoding": "mapping",
        "key": "t_bytes32",
        "label": "mapping(bytes32 => struct EnumerableSet.AddressSet)",
        "numberOfBytes": "32",
        "value": "t_struct(AddressSet)14390_storage"
      },
      "t_mapping(t_bytes32,t_struct(RoleData)6146_storage)": {
        "encoding": "mapping",
        "key": "t_bytes32",
        "label": "mapping(bytes32 => struct AccessControl.RoleData)",
        "numberOfBytes": "32",
        "value": "t_struct(RoleData)6146_storage"
      },
      "t_mapping(t_bytes32,t_uint256)": {
        "encoding": "mapping",
        "key": "t_bytes32",
        "label": "mapping(bytes32 => uint256)",
        "numberOfBytes": "32",
        "value": "t_uint256"
      },
      "t_struct(AddressSet)14390_storage": {
        "encoding": "inplace",
        "label": "struct EnumerableSet.AddressSet",
        "members": [
          {
            "astId": 14389,
            "contract": "contracts/core/Core.sol:Core",
            "label": "_inner",
            "offset": 0,
            "slot": "0",
            "type": "t_struct(Set)14089_storage"
          }
        ],
        "numberOfBytes": "64"
      },
      "t_struct(RoleData)6146_storage": {
        "encoding": "inplace",
        "label": "struct AccessControl.RoleData",
        "members": [
          {
            "astId": 6143,
            "contract": "contracts/core/Core.sol:Core",
            "label": "members",
            "offset": 0,
            "slot": "0",
            "type": "t_mapping(t_address,t_bool)"
          },
          {
            "astId": 6145,
            "contract": "contracts/core/Core.sol:Core",
            "label": "adminRole",
            "offset": 0,
            "slot": "1",
            "type": "t_bytes32"
          }
        ],
        "numberOfBytes": "64"
      },
      "t_struct(Set)14089_storage": {
        "encoding": "inplace",
        "label": "struct EnumerableSet.Set",
        "members": [
          {
            "astId": 14084,
            "contract": "contracts/core/Core.sol:Core",
            "label": "_values",
            "offset": 0,
            "slot": "0",
            "type": "t_array(t_bytes32)dyn_storage"
          },
          {
            "astId": 14088,
            "contract": "contracts/core/Core.sol:Core",
            "label": "_indexes",
            "offset": 0,
            "slot": "1",
            "type": "t_mapping(t_bytes32,t_uint256)"
          }
        ],
        "numberOfBytes": "64"
      },
      "t_uint256": {
        "encoding": "inplace",
        "label": "uint256",
        "numberOfBytes": "32"
      }
    }
  }
}