{
  "address": "0x0fd5775Be1F006bCd2DB6Cb40075B67d05BB5423",
  "abi": [
    {
      "inputs": [
        {
          "internalType": "address",
          "name": "core",
          "type": "address"
        }
      ],
      "stateMutability": "nonpayable",
      "type": "constructor"
    },
    {
      "anonymous": false,
      "inputs": [
        {
          "indexed": true,
          "internalType": "address",
          "name": "owner",
          "type": "address"
        },
        {
          "indexed": true,
          "internalType": "address",
          "name": "spender",
          "type": "address"
        },
        {
          "indexed": false,
          "internalType": "uint256",
          "name": "value",
          "type": "uint256"
        }
      ],
      "name": "Approval",
      "type": "event"
    },
    {
      "anonymous": false,
      "inputs": [
        {
          "indexed": true,
          "internalType": "address",
          "name": "_to",
          "type": "address"
        },
        {
          "indexed": true,
          "internalType": "address",
          "name": "_burner",
          "type": "address"
        },
        {
          "indexed": false,
          "internalType": "uint256",
          "name": "_amount",
          "type": "uint256"
        }
      ],
      "name": "Burning",
      "type": "event"
    },
    {
      "anonymous": false,
      "inputs": [
        {
          "indexed": true,
          "internalType": "bytes32",
          "name": "oldContractAdminRole",
          "type": "bytes32"
        },
        {
          "indexed": true,
          "internalType": "bytes32",
          "name": "newContractAdminRole",
          "type": "bytes32"
        }
      ],
      "name": "ContractAdminRoleUpdate",
      "type": "event"
    },
    {
      "anonymous": false,
      "inputs": [
        {
          "indexed": true,
          "internalType": "address",
          "name": "oldCore",
          "type": "address"
        },
        {
          "indexed": true,
          "internalType": "address",
          "name": "newCore",
          "type": "address"
        }
      ],
      "name": "CoreUpdate",
      "type": "event"
    },
    {
      "anonymous": false,
      "inputs": [
        {
          "indexed": true,
          "internalType": "address",
          "name": "_incentivized",
          "type": "address"
        },
        {
          "indexed": true,
          "internalType": "address",
          "name": "_incentiveContract",
          "type": "address"
        }
      ],
      "name": "IncentiveContractUpdate",
      "type": "event"
    },
    {
      "anonymous": false,
      "inputs": [
        {
          "indexed": true,
          "internalType": "address",
          "name": "_to",
          "type": "address"
        },
        {
          "indexed": true,
          "internalType": "address",
          "name": "_minter",
          "type": "address"
        },
        {
          "indexed": false,
          "internalType": "uint256",
          "name": "_amount",
          "type": "uint256"
        }
      ],
      "name": "Minting",
      "type": "event"
    },
    {
      "anonymous": false,
      "inputs": [
        {
          "indexed": false,
          "internalType": "address",
          "name": "account",
          "type": "address"
        }
      ],
      "name": "Paused",
      "type": "event"
    },
    {
      "anonymous": false,
      "inputs": [
        {
          "indexed": true,
          "internalType": "address",
          "name": "from",
          "type": "address"
        },
        {
          "indexed": true,
          "internalType": "address",
          "name": "to",
          "type": "address"
        },
        {
          "indexed": false,
          "internalType": "uint256",
          "name": "value",
          "type": "uint256"
        }
      ],
      "name": "Transfer",
      "type": "event"
    },
    {
      "anonymous": false,
      "inputs": [
        {
          "indexed": false,
          "internalType": "address",
          "name": "account",
          "type": "address"
        }
      ],
      "name": "Unpaused",
      "type": "event"
    },
    {
      "inputs": [],
      "name": "CONTRACT_ADMIN_ROLE",
      "outputs": [
        {
          "internalType": "bytes32",
          "name": "",
          "type": "bytes32"
        }
      ],
      "stateMutability": "view",
      "type": "function"
    },
    {
      "inputs": [],
      "name": "DOMAIN_SEPARATOR",
      "outputs": [
        {
          "internalType": "bytes32",
          "name": "",
          "type": "bytes32"
        }
      ],
      "stateMutability": "view",
      "type": "function"
    },
    {
      "inputs": [],
      "name": "PERMIT_TYPEHASH",
      "outputs": [
        {
          "internalType": "bytes32",
          "name": "",
          "type": "bytes32"
        }
      ],
      "stateMutability": "view",
      "type": "function"
    },
    {
      "inputs": [
        {
          "internalType": "address",
          "name": "owner",
          "type": "address"
        },
        {
          "internalType": "address",
          "name": "spender",
          "type": "address"
        }
      ],
      "name": "allowance",
      "outputs": [
        {
          "internalType": "uint256",
          "name": "",
          "type": "uint256"
        }
      ],
      "stateMutability": "view",
      "type": "function"
    },
    {
      "inputs": [
        {
          "internalType": "address",
          "name": "spender",
          "type": "address"
        },
        {
          "internalType": "uint256",
          "name": "amount",
          "type": "uint256"
        }
      ],
      "name": "approve",
      "outputs": [
        {
          "internalType": "bool",
          "name": "",
          "type": "bool"
        }
      ],
      "stateMutability": "nonpayable",
      "type": "function"
    },
    {
      "inputs": [
        {
          "internalType": "address",
          "name": "account",
          "type": "address"
        }
      ],
      "name": "balanceOf",
      "outputs": [
        {
          "internalType": "uint256",
          "name": "",
          "type": "uint256"
        }
      ],
      "stateMutability": "view",
      "type": "function"
    },
    {
      "inputs": [
        {
          "internalType": "uint256",
          "name": "amount",
          "type": "uint256"
        }
      ],
      "name": "burn",
      "outputs": [],
      "stateMutability": "nonpayable",
      "type": "function"
    },
    {
      "inputs": [
        {
          "internalType": "address",
          "name": "account",
          "type": "address"
        },
        {
          "internalType": "uint256",
          "name": "amount",
          "type": "uint256"
        }
      ],
      "name": "burnFrom",
      "outputs": [],
      "stateMutability": "nonpayable",
      "type": "function"
    },
    {
      "inputs": [],
      "name": "core",
      "outputs": [
        {
          "internalType": "contract ICore",
          "name": "",
          "type": "address"
        }
      ],
      "stateMutability": "view",
      "type": "function"
    },
    {
      "inputs": [],
      "name": "decimals",
      "outputs": [
        {
          "internalType": "uint8",
          "name": "",
          "type": "uint8"
        }
      ],
      "stateMutability": "view",
      "type": "function"
    },
    {
      "inputs": [
        {
          "internalType": "address",
          "name": "spender",
          "type": "address"
        },
        {
          "internalType": "uint256",
          "name": "subtractedValue",
          "type": "uint256"
        }
      ],
      "name": "decreaseAllowance",
      "outputs": [
        {
          "internalType": "bool",
          "name": "",
          "type": "bool"
        }
      ],
      "stateMutability": "nonpayable",
      "type": "function"
    },
    {
      "inputs": [],
      "name": "fei",
      "outputs": [
        {
          "internalType": "contract IFei",
          "name": "",
          "type": "address"
        }
      ],
      "stateMutability": "view",
      "type": "function"
    },
    {
      "inputs": [],
      "name": "feiBalance",
      "outputs": [
        {
          "internalType": "uint256",
          "name": "",
          "type": "uint256"
        }
      ],
      "stateMutability": "view",
      "type": "function"
    },
    {
      "inputs": [
        {
          "internalType": "address",
          "name": "",
          "type": "address"
        }
      ],
      "name": "incentiveContract",
      "outputs": [
        {
          "internalType": "address",
          "name": "",
          "type": "address"
        }
      ],
      "stateMutability": "view",
      "type": "function"
    },
    {
      "inputs": [
        {
          "internalType": "address",
          "name": "spender",
          "type": "address"
        },
        {
          "internalType": "uint256",
          "name": "addedValue",
          "type": "uint256"
        }
      ],
      "name": "increaseAllowance",
      "outputs": [
        {
          "internalType": "bool",
          "name": "",
          "type": "bool"
        }
      ],
      "stateMutability": "nonpayable",
      "type": "function"
    },
    {
      "inputs": [
        {
          "internalType": "address",
          "name": "_admin",
          "type": "address"
        }
      ],
      "name": "isContractAdmin",
      "outputs": [
        {
          "internalType": "bool",
          "name": "",
          "type": "bool"
        }
      ],
      "stateMutability": "view",
      "type": "function"
    },
    {
      "inputs": [
        {
          "internalType": "address",
          "name": "account",
          "type": "address"
        },
        {
          "internalType": "uint256",
          "name": "amount",
          "type": "uint256"
        }
      ],
      "name": "mint",
      "outputs": [],
      "stateMutability": "nonpayable",
      "type": "function"
    },
    {
      "inputs": [],
      "name": "name",
      "outputs": [
        {
          "internalType": "string",
          "name": "",
          "type": "string"
        }
      ],
      "stateMutability": "view",
      "type": "function"
    },
    {
      "inputs": [
        {
          "internalType": "address",
          "name": "",
          "type": "address"
        }
      ],
      "name": "nonces",
      "outputs": [
        {
          "internalType": "uint256",
          "name": "",
          "type": "uint256"
        }
      ],
      "stateMutability": "view",
      "type": "function"
    },
    {
      "inputs": [],
      "name": "pause",
      "outputs": [],
      "stateMutability": "nonpayable",
      "type": "function"
    },
    {
      "inputs": [],
      "name": "paused",
      "outputs": [
        {
          "internalType": "bool",
          "name": "",
          "type": "bool"
        }
      ],
      "stateMutability": "view",
      "type": "function"
    },
    {
      "inputs": [
        {
          "internalType": "address",
          "name": "owner",
          "type": "address"
        },
        {
          "internalType": "address",
          "name": "spender",
          "type": "address"
        },
        {
          "internalType": "uint256",
          "name": "value",
          "type": "uint256"
        },
        {
          "internalType": "uint256",
          "name": "deadline",
          "type": "uint256"
        },
        {
          "internalType": "uint8",
          "name": "v",
          "type": "uint8"
        },
        {
          "internalType": "bytes32",
          "name": "r",
          "type": "bytes32"
        },
        {
          "internalType": "bytes32",
          "name": "s",
          "type": "bytes32"
        }
      ],
      "name": "permit",
      "outputs": [],
      "stateMutability": "nonpayable",
      "type": "function"
    },
    {
      "inputs": [
        {
          "internalType": "bytes32",
          "name": "newContractAdminRole",
          "type": "bytes32"
        }
      ],
      "name": "setContractAdminRole",
      "outputs": [],
      "stateMutability": "nonpayable",
      "type": "function"
    },
    {
      "inputs": [
        {
          "internalType": "address",
          "name": "newCore",
          "type": "address"
        }
      ],
      "name": "setCore",
      "outputs": [],
      "stateMutability": "nonpayable",
      "type": "function"
    },
    {
      "inputs": [
        {
          "internalType": "address",
          "name": "account",
          "type": "address"
        },
        {
          "internalType": "address",
          "name": "incentive",
          "type": "address"
        }
      ],
      "name": "setIncentiveContract",
      "outputs": [],
      "stateMutability": "nonpayable",
      "type": "function"
    },
    {
      "inputs": [],
      "name": "symbol",
      "outputs": [
        {
          "internalType": "string",
          "name": "",
          "type": "string"
        }
      ],
      "stateMutability": "view",
      "type": "function"
    },
    {
      "inputs": [],
      "name": "totalSupply",
      "outputs": [
        {
          "internalType": "uint256",
          "name": "",
          "type": "uint256"
        }
      ],
      "stateMutability": "view",
      "type": "function"
    },
    {
      "inputs": [
        {
          "internalType": "address",
          "name": "recipient",
          "type": "address"
        },
        {
          "internalType": "uint256",
          "name": "amount",
          "type": "uint256"
        }
      ],
      "name": "transfer",
      "outputs": [
        {
          "internalType": "bool",
          "name": "",
          "type": "bool"
        }
      ],
      "stateMutability": "nonpayable",
      "type": "function"
    },
    {
      "inputs": [
        {
          "internalType": "address",
          "name": "sender",
          "type": "address"
        },
        {
          "internalType": "address",
          "name": "recipient",
          "type": "address"
        },
        {
          "internalType": "uint256",
          "name": "amount",
          "type": "uint256"
        }
      ],
      "name": "transferFrom",
      "outputs": [
        {
          "internalType": "bool",
          "name": "",
          "type": "bool"
        }
      ],
      "stateMutability": "nonpayable",
      "type": "function"
    },
    {
      "inputs": [],
      "name": "tribe",
      "outputs": [
        {
          "internalType": "contract IERC20",
          "name": "",
          "type": "address"
        }
      ],
      "stateMutability": "view",
      "type": "function"
    },
    {
      "inputs": [],
      "name": "tribeBalance",
      "outputs": [
        {
          "internalType": "uint256",
          "name": "",
          "type": "uint256"
        }
      ],
      "stateMutability": "view",
      "type": "function"
    },
    {
      "inputs": [],
      "name": "unpause",
      "outputs": [],
      "stateMutability": "nonpayable",
      "type": "function"
    }
  ],
  "transactionHash": "0x138c9c2e5408de8b8e6b48ec666794690000aeba5011bff0ded804058cccfd07",
  "args": [
    "0x69c5db71bb6b7DE5951765216c1FcA66FCA4702b"
  ],
  "solcInputHash": "a1c9c935ba7246b4f63cdd13d1219e7e",
  "bytecode": "0x60806040523480156200001157600080fd5b50604051620023d1380380620023d18339810160408190526200003491620003f1565b604080518082018252600781526611995a481554d160ca1b6020808301918252835180850190945260038085526246454960e81b9185019190915282518594926200008092916200034b565b508051620000969060049060208401906200034b565b50506005805460ff1916905550620000ae8162000163565b50467f8b73c3c69bb8fe3d512ecc4cf759cc79239f7b179b0ffacaa9a75d522b39400f620000db62000278565b805160209182012060408051808201825260018152603160f81b90840152805192830193909352918101919091527fc89efdaa54c0f20c7adf612882df0950f5a951637e0307cdcb4c672f298b8bc66060820152608081018290523060a082015260c00160405160208183030381529060405280519060200120600981905550505062000477565b60075460ff1615620001bb5760405162461bcd60e51b815260206004820152601c60248201527f436f72655265663a20616c726561647920696e697469616c697a656400000000604482015260640160405180910390fd5b60078054600160ff1990911617905560058054610100600160a81b0319166101006001600160a01b038481168202929092179283905560408051631c5bfa2360e11b81529051620002759492909204909216916338b7f446916004808301926020929190829003018186803b1580156200023457600080fd5b505afa15801562000249573d6000803e3d6000fd5b505050506040513d601f19601f820116820180604052508101906200026f919062000421565b62000312565b50565b60606003805462000289906200043a565b80601f0160208091040260200160405190810160405280929190818152602001828054620002b7906200043a565b8015620003085780601f10620002dc5761010080835404028352916020019162000308565b820191906000526020600020905b815481529060010190602001808311620002ea57829003601f168201915b5050505050905090565b6006805490829055604051829082907f29ddd278ef9169e35aa84e424b39048b89af9c0b50f85497e40f97dff6946cf590600090a35050565b82805462000359906200043a565b90600052602060002090601f0160209004810192826200037d5760008555620003c8565b82601f106200039857805160ff1916838001178555620003c8565b82800160010185558215620003c8579182015b82811115620003c8578251825591602001919060010190620003ab565b50620003d6929150620003da565b5090565b5b80821115620003d65760008155600101620003db565b60006020828403121562000403578081fd5b81516001600160a01b03811681146200041a578182fd5b9392505050565b60006020828403121562000433578081fd5b5051919050565b600181811c908216806200044f57607f821691505b602082108114156200047157634e487b7160e01b600052602260045260246000fd5b50919050565b611f4a80620004876000396000f3fe608060405234801561001057600080fd5b50600436106101f05760003560e01c80637ecebe001161010f578063b6232c99116100a2578063d505accf11610071578063d505accf1461041d578063dd62ed3e14610430578063f2f4eb2614610469578063fc81a12a1461047f57600080fd5b8063b6232c99146103c6578063b86677fe146103d9578063bc701e75146103e1578063d34884421461040a57600080fd5b80639a9ba4da116100de5780639a9ba4da14610378578063a457c2d714610398578063a9059cbb146103ab578063b4905897146103be57600080fd5b80637ecebe001461033557806380009630146103555780638456cb591461036857806395d89b411461037057600080fd5b806339509351116101875780635c975abb116101565780635c975abb146102e65780636b6dff0a146102f157806370a08231146102f957806379cc67901461032257600080fd5b806339509351146102a35780633f4ba83a146102b657806340c10f19146102c057806342966c68146102d357600080fd5b806323b872dd116101c357806323b872dd1461025157806330adf81f14610264578063313ce5671461028b5780633644e5151461029a57600080fd5b806306fdde03146101f5578063095ea7b31461021357806318160ddd146102365780631da0331214610248575b600080fd5b6101fd610492565b60405161020a9190611d59565b60405180910390f35b610226610221366004611c98565b610524565b604051901515815260200161020a565b6002545b60405190815260200161020a565b61023a60065481565b61022661025f366004611be3565b61053a565b61023a7f6e71edae12b1b97f4d1f60370fef10105fa2faae0126114a169c64845d6126c981565b6040516012815260200161020a565b61023a60095481565b6102266102b1366004611c98565b6105e9565b6102be610625565b005b6102be6102ce366004611c98565b61074f565b6102be6102e1366004611ce3565b61088c565b60055460ff16610226565b61023a6108cf565b61023a610307366004611b88565b6001600160a01b031660009081526020819052604090205490565b6102be610330366004611c98565b610957565b61023a610343366004611b88565b600a6020526000908152604090205481565b6102be610363366004611b88565b610a8c565b6102be610bcf565b6101fd610cf7565b610380610d06565b6040516001600160a01b03909116815260200161020a565b6102266103a6366004611c98565b610d8e565b6102266103b9366004611c98565b610e27565b61023a610e34565b6102be6103d4366004611bab565b610e3e565b610380610f30565b6103806103ef366004611b88565b6008602052600090815260409020546001600160a01b031681565b6102be610418366004611ce3565b610f80565b6102be61042b366004611c23565b611027565b61023a61043e366004611bab565b6001600160a01b03918216600090815260016020908152604080832093909416825291909152205490565b60055461010090046001600160a01b0316610380565b61022661048d366004611b88565b61122e565b6060600380546104a190611e93565b80601f01602080910402602001604051908101604052809291908181526020018280546104cd90611e93565b801561051a5780601f106104ef5761010080835404028352916020019161051a565b820191906000526020600020905b8154815290600101906020018083116104fd57829003601f168201915b5050505050905090565b60006105313384846112c2565b50600192915050565b60006105478484846113e6565b6001600160a01b0384166000908152600160209081526040808320338452909152902054828110156105d15760405162461bcd60e51b815260206004820152602860248201527f45524332303a207472616e7366657220616d6f756e74206578636565647320616044820152676c6c6f77616e636560c01b60648201526084015b60405180910390fd5b6105de85338584036112c2565b506001949350505050565b3360008181526001602090815260408083206001600160a01b03871684529091528120549091610531918590610620908690611e64565b6112c2565b600554604051631c86b03760e31b81523360048201526101009091046001600160a01b03169063e43581b89060240160206040518083038186803b15801561066c57600080fd5b505afa158015610680573d6000803e3d6000fd5b505050506040513d601f19601f820116820180604052508101906106a49190611cc3565b806107295750600554604051630c68ba2160e01b81523360048201526101009091046001600160a01b031690630c68ba219060240160206040518083038186803b1580156106f157600080fd5b505afa158015610705573d6000803e3d6000fd5b505050506040513d601f19601f820116820180604052508101906107299190611cc3565b6107455760405162461bcd60e51b81526004016105c890611dac565b61074d611401565b565b6005546040516355138f0d60e11b81523360048201526101009091046001600160a01b03169063aa271e1a9060240160206040518083038186803b15801561079657600080fd5b505afa1580156107aa573d6000803e3d6000fd5b505050506040513d601f19601f820116820180604052508101906107ce9190611cc3565b61081a5760405162461bcd60e51b815260206004820152601f60248201527f436f72655265663a2043616c6c6572206973206e6f742061206d696e7465720060448201526064016105c8565b60055460ff161561083d5760405162461bcd60e51b81526004016105c890611df9565b6108478282611494565b60405181815233906001600160a01b038416907fb1233017d63154bc561d57c16f7b6a55e2e1acd7fcac94045a9f35fb31a850ca906020015b60405180910390a35050565b6108958161156c565b604051818152339081907f227fb4b3aae8331f21af5167739c291fefe3afd3c2e08cea44f499e564f486ef9060200160405180910390a350565b60006108d9610f30565b6040516370a0823160e01b81523060048201526001600160a01b0391909116906370a082319060240160206040518083038186803b15801561091a57600080fd5b505afa15801561092e573d6000803e3d6000fd5b505050506040513d601f19601f820116820180604052508101906109529190611d17565b905090565b60055460405163219a30a560e11b81523360048201526101009091046001600160a01b031690634334614a9060240160206040518083038186803b15801561099e57600080fd5b505afa1580156109b2573d6000803e3d6000fd5b505050506040513d601f19601f820116820180604052508101906109d69190611cc3565b610a225760405162461bcd60e51b815260206004820152601f60248201527f436f72655265663a2043616c6c6572206973206e6f742061206275726e65720060448201526064016105c8565b60055460ff1615610a455760405162461bcd60e51b81526004016105c890611df9565b610a4f8282611572565b60405181815233906001600160a01b038416907f227fb4b3aae8331f21af5167739c291fefe3afd3c2e08cea44f499e564f486ef90602001610880565b600554604051631c86b03760e31b81523360048201526101009091046001600160a01b03169063e43581b89060240160206040518083038186803b158015610ad357600080fd5b505afa158015610ae7573d6000803e3d6000fd5b505050506040513d601f19601f82011682018060405250810190610b0b9190611cc3565b610b275760405162461bcd60e51b81526004016105c890611e23565b6001600160a01b038116610b755760405162461bcd60e51b8152602060048201526015602482015274436f72655265663a207a65726f206164647265737360581b60448201526064016105c8565b600580546001600160a01b03838116610100818102610100600160a81b031985161790945560405193909204169182907f9209b7c8c06dcfd261686a663e7c55989337b18d59da5433c6f2835fb697092090600090a35050565b600554604051631c86b03760e31b81523360048201526101009091046001600160a01b03169063e43581b89060240160206040518083038186803b158015610c1657600080fd5b505afa158015610c2a573d6000803e3d6000fd5b505050506040513d601f19601f82011682018060405250810190610c4e9190611cc3565b80610cd35750600554604051630c68ba2160e01b81523360048201526101009091046001600160a01b031690630c68ba219060240160206040518083038186803b158015610c9b57600080fd5b505afa158015610caf573d6000803e3d6000fd5b505050506040513d601f19601f82011682018060405250810190610cd39190611cc3565b610cef5760405162461bcd60e51b81526004016105c890611dac565b61074d6116c0565b6060600480546104a190611e93565b6000600560019054906101000a90046001600160a01b03166001600160a01b0316639a9ba4da6040518163ffffffff1660e01b815260040160206040518083038186803b158015610d5657600080fd5b505afa158015610d6a573d6000803e3d6000fd5b505050506040513d601f19601f820116820180604052508101906109529190611cfb565b3360009081526001602090815260408083206001600160a01b038616845290915281205482811015610e105760405162461bcd60e51b815260206004820152602560248201527f45524332303a2064656372656173656420616c6c6f77616e63652062656c6f77604482015264207a65726f60d81b60648201526084016105c8565b610e1d33858584036112c2565b5060019392505050565b60006105313384846113e6565b60006108d9610d06565b600554604051631c86b03760e31b81523360048201526101009091046001600160a01b03169063e43581b89060240160206040518083038186803b158015610e8557600080fd5b505afa158015610e99573d6000803e3d6000fd5b505050506040513d601f19601f82011682018060405250810190610ebd9190611cc3565b610ed95760405162461bcd60e51b81526004016105c890611e23565b6001600160a01b0382811660008181526008602052604080822080546001600160a01b0319169486169485179055517f88bb9e877881758e827c849b8a0e38421bd5ff916f4ef79ed65aec74cc04a5da9190a35050565b6000600560019054906101000a90046001600160a01b03166001600160a01b031663b86677fe6040518163ffffffff1660e01b815260040160206040518083038186803b158015610d5657600080fd5b600554604051631c86b03760e31b81523360048201526101009091046001600160a01b03169063e43581b89060240160206040518083038186803b158015610fc757600080fd5b505afa158015610fdb573d6000803e3d6000fd5b505050506040513d601f19601f82011682018060405250810190610fff9190611cc3565b61101b5760405162461bcd60e51b81526004016105c890611e23565b61102481611718565b50565b428410156110665760405162461bcd60e51b815260206004820152600c60248201526b11995a4e881156141254915160a21b60448201526064016105c8565b6009546001600160a01b0388166000908152600a6020526040812080549192917f6e71edae12b1b97f4d1f60370fef10105fa2faae0126114a169c64845d6126c9918b918b918b9190876110b983611ece565b909155506040805160208101969096526001600160a01b0394851690860152929091166060840152608083015260a082015260c0810187905260e0016040516020818303038152906040528051906020012060405160200161113292919061190160f01b81526002810192909252602282015260420190565b60408051601f198184030181528282528051602091820120600080855291840180845281905260ff88169284019290925260608301869052608083018590529092509060019060a0016020604051602081039080840390855afa15801561119d573d6000803e3d6000fd5b5050604051601f1901519150506001600160a01b038116158015906111d35750886001600160a01b0316816001600160a01b0316145b6112185760405162461bcd60e51b81526020600482015260166024820152754665693a20494e56414c49445f5349474e415455524560501b60448201526064016105c8565b6112238989896112c2565b505050505050505050565b600554600654604051632474521560e21b815260048101919091526001600160a01b038381166024830152600092610100900416906391d148549060440160206040518083038186803b15801561128457600080fd5b505afa158015611298573d6000803e3d6000fd5b505050506040513d601f19601f820116820180604052508101906112bc9190611cc3565b92915050565b6001600160a01b0383166113245760405162461bcd60e51b8152602060048201526024808201527f45524332303a20617070726f76652066726f6d20746865207a65726f206164646044820152637265737360e01b60648201526084016105c8565b6001600160a01b0382166113855760405162461bcd60e51b815260206004820152602260248201527f45524332303a20617070726f766520746f20746865207a65726f206164647265604482015261737360f01b60648201526084016105c8565b6001600160a01b0383811660008181526001602090815260408083209487168084529482529182902085905590518481527f8c5be1e5ebec7d5bd14f71427d1e84f3dd0314c0f7b2291e5b200ac8c7c3b925910160405180910390a3505050565b6113f1838383611751565b6113fc838383611920565b505050565b60055460ff1661144a5760405162461bcd60e51b815260206004820152601460248201527314185d5cd8589b194e881b9bdd081c185d5cd95960621b60448201526064016105c8565b6005805460ff191690557f5db9ee0a495bf2e6ff9c91a7834c1ba4fdd244a5e8aa4e537bd38aeae4b073aa335b6040516001600160a01b03909116815260200160405180910390a1565b6001600160a01b0382166114ea5760405162461bcd60e51b815260206004820152601f60248201527f45524332303a206d696e7420746f20746865207a65726f20616464726573730060448201526064016105c8565b80600260008282546114fc9190611e64565b90915550506001600160a01b03821660009081526020819052604081208054839290611529908490611e64565b90915550506040518181526001600160a01b038316906000907fddf252ad1be2c89b69c2b068fc378daa952ba7f163c4a11628f55a4df523b3ef90602001610880565b61102433825b6001600160a01b0382166115d25760405162461bcd60e51b815260206004820152602160248201527f45524332303a206275726e2066726f6d20746865207a65726f206164647265736044820152607360f81b60648201526084016105c8565b6001600160a01b038216600090815260208190526040902054818110156116465760405162461bcd60e51b815260206004820152602260248201527f45524332303a206275726e20616d6f756e7420657863656564732062616c616e604482015261636560f01b60648201526084016105c8565b6001600160a01b0383166000908152602081905260408120838303905560028054849290611675908490611e7c565b90915550506040518281526000906001600160a01b038516907fddf252ad1be2c89b69c2b068fc378daa952ba7f163c4a11628f55a4df523b3ef9060200160405180910390a3505050565b60055460ff16156116e35760405162461bcd60e51b81526004016105c890611df9565b6005805460ff191660011790557f62e78cea01bee320cd4e420270b5ea74000d11b0c9f74754ebdbfc544b05a2586114773390565b6006805490829055604051829082907f29ddd278ef9169e35aa84e424b39048b89af9c0b50f85497e40f97dff6946cf590600090a35050565b6001600160a01b0383166117b55760405162461bcd60e51b815260206004820152602560248201527f45524332303a207472616e736665722066726f6d20746865207a65726f206164604482015264647265737360d81b60648201526084016105c8565b6001600160a01b0382166118175760405162461bcd60e51b815260206004820152602360248201527f45524332303a207472616e7366657220746f20746865207a65726f206164647260448201526265737360e81b60648201526084016105c8565b6001600160a01b0383166000908152602081905260409020548181101561188f5760405162461bcd60e51b815260206004820152602660248201527f45524332303a207472616e7366657220616d6f756e7420657863656564732062604482015265616c616e636560d01b60648201526084016105c8565b6001600160a01b038085166000908152602081905260408082208585039055918516815290812080548492906118c6908490611e64565b92505081905550826001600160a01b0316846001600160a01b03167fddf252ad1be2c89b69c2b068fc378daa952ba7f163c4a11628f55a4df523b3ef8460405161191291815260200190565b60405180910390a350505050565b6001600160a01b038084166000908152600860205260409020541680156119a657604051636e22230d60e01b81526001600160a01b03821690636e22230d90611973908790879033908890600401611d2f565b600060405180830381600087803b15801561198d57600080fd5b505af11580156119a1573d6000803e3d6000fd5b505050505b6001600160a01b03808416600090815260086020526040902054168015611a2c57604051636e22230d60e01b81526001600160a01b03821690636e22230d906119f9908890889033908990600401611d2f565b600060405180830381600087803b158015611a1357600080fd5b505af1158015611a27573d6000803e3d6000fd5b505050505b336000818152600860205260409020546001600160a01b039081169190871614801590611a625750336001600160a01b03861614155b8015611a7657506001600160a01b03811615155b15611ae057604051636e22230d60e01b81526001600160a01b03821690636e22230d90611aad908990899033908a90600401611d2f565b600060405180830381600087803b158015611ac757600080fd5b505af1158015611adb573d6000803e3d6000fd5b505050505b6000805260086020527f5eff886ea0ce6ca488a3d6e336d6c0f75f46d19b42c06ce5ee98e42c96d256c7546001600160a01b03168015611b7f57604051636e22230d60e01b81526001600160a01b03821690636e22230d90611b4c908a908a9033908b90600401611d2f565b600060405180830381600087803b158015611b6657600080fd5b505af1158015611b7a573d6000803e3d6000fd5b505050505b50505050505050565b600060208284031215611b99578081fd5b8135611ba481611eff565b9392505050565b60008060408385031215611bbd578081fd5b8235611bc881611eff565b91506020830135611bd881611eff565b809150509250929050565b600080600060608486031215611bf7578081fd5b8335611c0281611eff565b92506020840135611c1281611eff565b929592945050506040919091013590565b600080600080600080600060e0888a031215611c3d578283fd5b8735611c4881611eff565b96506020880135611c5881611eff565b95506040880135945060608801359350608088013560ff81168114611c7b578384fd5b9699959850939692959460a0840135945060c09093013592915050565b60008060408385031215611caa578182fd5b8235611cb581611eff565b946020939093013593505050565b600060208284031215611cd4578081fd5b81518015158114611ba4578182fd5b600060208284031215611cf4578081fd5b5035919050565b600060208284031215611d0c578081fd5b8151611ba481611eff565b600060208284031215611d28578081fd5b5051919050565b6001600160a01b039485168152928416602084015292166040820152606081019190915260800190565b6000602080835283518082850152825b81811015611d8557858101830151858201604001528201611d69565b81811115611d965783604083870101525b50601f01601f1916929092016040019392505050565b6020808252602d908201527f436f72655265663a2043616c6c6572206973206e6f742061206775617264696160408201526c371037b91033b7bb32b93737b960991b606082015260800190565b60208082526010908201526f14185d5cd8589b194e881c185d5cd95960821b604082015260600190565b60208082526021908201527f436f72655265663a2043616c6c6572206973206e6f74206120676f7665726e6f6040820152603960f91b606082015260800190565b60008219821115611e7757611e77611ee9565b500190565b600082821015611e8e57611e8e611ee9565b500390565b600181811c90821680611ea757607f821691505b60208210811415611ec857634e487b7160e01b600052602260045260246000fd5b50919050565b6000600019821415611ee257611ee2611ee9565b5060010190565b634e487b7160e01b600052601160045260246000fd5b6001600160a01b038116811461102457600080fdfea26469706673582212205abf5c9861bb65a500ba82ad084ef59a6274c2e37fc2878e4f2e50ec6ee68a3464736f6c63430008040033",
  "devdoc": {
    "author": "Fei Protocol",
    "kind": "dev",
    "methods": {
      "allowance(address,address)": {
        "details": "See {IERC20-allowance}."
      },
      "approve(address,uint256)": {
        "details": "See {IERC20-approve}. Requirements: - `spender` cannot be the zero address."
      },
      "balanceOf(address)": {
        "details": "See {IERC20-balanceOf}."
      },
      "burn(uint256)": {
        "params": {
          "amount": "the amount to burn"
        }
      },
      "burnFrom(address,uint256)": {
        "params": {
          "account": "the account to burn from",
          "amount": "the amount to burn"
        }
      },
      "constructor": {
        "params": {
          "core": "Fei Core address to reference"
        }
      },
      "core()": {
        "returns": {
          "_0": "ICore implementation address"
        }
      },
      "decimals()": {
        "details": "Returns the number of decimals used to get its user representation. For example, if `decimals` equals `2`, a balance of `505` tokens should be displayed to a user as `5.05` (`505 / 10 ** 2`). Tokens usually opt for a value of 18, imitating the relationship between Ether and Wei. This is the value {ERC20} uses, unless this function is overridden; NOTE: This information is only used for _display_ purposes: it in no way affects any of the arithmetic of the contract, including {IERC20-balanceOf} and {IERC20-transfer}."
      },
      "decreaseAllowance(address,uint256)": {
        "details": "Atomically decreases the allowance granted to `spender` by the caller. This is an alternative to {approve} that can be used as a mitigation for problems described in {IERC20-approve}. Emits an {Approval} event indicating the updated allowance. Requirements: - `spender` cannot be the zero address. - `spender` must have allowance for the caller of at least `subtractedValue`."
      },
      "fei()": {
        "returns": {
          "_0": "IFei implementation address"
        }
      },
      "feiBalance()": {
        "returns": {
          "_0": "fei amount held"
        }
      },
      "increaseAllowance(address,uint256)": {
        "details": "Atomically increases the allowance granted to `spender` by the caller. This is an alternative to {approve} that can be used as a mitigation for problems described in {IERC20-approve}. Emits an {Approval} event indicating the updated allowance. Requirements: - `spender` cannot be the zero address."
      },
      "mint(address,uint256)": {
        "params": {
          "account": "the account to mint to",
          "amount": "the amount to mint"
        }
      },
      "name()": {
        "details": "Returns the name of the token."
      },
      "paused()": {
        "details": "Returns true if the contract is paused, and false otherwise."
      },
      "permit(address,address,uint256,uint256,uint8,bytes32,bytes32)": {
        "params": {
          "deadline": "the deadline after which the approval is no longer valid",
          "owner": "the FEI holder",
          "spender": "the approved operator",
          "value": "the amount approved"
        }
      },
      "setCore(address)": {
        "params": {
          "newCore": "the new core address"
        }
      },
      "setIncentiveContract(address,address)": {
        "params": {
          "account": "the account to incentivize",
          "incentive": "the associated incentive contract"
        }
      },
      "symbol()": {
        "details": "Returns the symbol of the token, usually a shorter version of the name."
      },
      "totalSupply()": {
        "details": "See {IERC20-totalSupply}."
      },
      "transfer(address,uint256)": {
        "details": "See {IERC20-transfer}. Requirements: - `recipient` cannot be the zero address. - the caller must have a balance of at least `amount`."
      },
      "transferFrom(address,address,uint256)": {
        "details": "See {IERC20-transferFrom}. Emits an {Approval} event indicating the updated allowance. This is not required by the EIP. See the note at the beginning of {ERC20}. Requirements: - `sender` and `recipient` cannot be the zero address. - `sender` must have a balance of at least `amount`. - the caller must have allowance for ``sender``'s tokens of at least `amount`."
      },
      "tribe()": {
        "returns": {
          "_0": "IERC20 implementation address"
        }
      },
      "tribeBalance()": {
        "returns": {
          "_0": "tribe amount held"
        }
      }
    },
    "title": "FEI stablecoin",
    "version": 1
  },
  "userdoc": {
    "kind": "user",
    "methods": {
      "CONTRACT_ADMIN_ROLE()": {
        "notice": "a role used with a subset of governor permissions for this contract only"
      },
      "burn(uint256)": {
        "notice": "burn FEI tokens from caller"
      },
      "burnFrom(address,uint256)": {
        "notice": "burn FEI tokens from specified account"
      },
      "constructor": {
        "notice": "Fei token constructor"
      },
      "core()": {
        "notice": "address of the Core contract referenced"
      },
      "fei()": {
        "notice": "address of the Fei contract referenced by Core"
      },
      "feiBalance()": {
        "notice": "fei balance of contract"
      },
      "incentiveContract(address)": {
        "notice": "get associated incentive contract, 0 address if N/A"
      },
      "isContractAdmin(address)": {
        "notice": "returns whether a given address has the admin role for this contract"
      },
      "mint(address,uint256)": {
        "notice": "mint FEI tokens"
      },
      "pause()": {
        "notice": "set pausable methods to paused"
      },
      "permit(address,address,uint256,uint256,uint8,bytes32,bytes32)": {
        "notice": "permit spending of FEI"
      },
      "setContractAdminRole(bytes32)": {
        "notice": "sets a new admin role for this contract"
      },
      "setCore(address)": {
        "notice": "set new Core reference address"
      },
      "tribe()": {
        "notice": "address of the Tribe contract referenced by Core"
      },
      "tribeBalance()": {
        "notice": "tribe balance of contract"
      },
      "unpause()": {
        "notice": "set pausable methods to unpaused"
      }
    },
    "version": 1
  },
  "storageLayout": {
    "storage": [
      {
        "astId": 10108,
        "contract": "contracts/token/Fei.sol:Fei",
        "label": "_balances",
        "offset": 0,
        "slot": "0",
        "type": "t_mapping(t_address,t_uint256)"
      },
      {
        "astId": 10114,
        "contract": "contracts/token/Fei.sol:Fei",
        "label": "_allowances",
        "offset": 0,
        "slot": "1",
        "type": "t_mapping(t_address,t_mapping(t_address,t_uint256))"
      },
      {
        "astId": 10116,
        "contract": "contracts/token/Fei.sol:Fei",
        "label": "_totalSupply",
        "offset": 0,
        "slot": "2",
        "type": "t_uint256"
      },
      {
        "astId": 10118,
        "contract": "contracts/token/Fei.sol:Fei",
        "label": "_name",
        "offset": 0,
        "slot": "3",
        "type": "t_string_storage"
      },
      {
        "astId": 10120,
        "contract": "contracts/token/Fei.sol:Fei",
        "label": "_symbol",
        "offset": 0,
        "slot": "4",
        "type": "t_string_storage"
      },
      {
        "astId": 10018,
        "contract": "contracts/token/Fei.sol:Fei",
        "label": "_paused",
        "offset": 0,
        "slot": "5",
        "type": "t_bool"
      },
      {
        "astId": 18453,
        "contract": "contracts/token/Fei.sol:Fei",
        "label": "_core",
        "offset": 1,
        "slot": "5",
        "type": "t_contract(ICore)1201"
      },
      {
        "astId": 18457,
        "contract": "contracts/token/Fei.sol:Fei",
        "label": "CONTRACT_ADMIN_ROLE",
        "offset": 0,
        "slot": "6",
        "type": "t_bytes32"
      },
      {
        "astId": 18460,
        "contract": "contracts/token/Fei.sol:Fei",
        "label": "_initialized",
        "offset": 0,
        "slot": "7",
        "type": "t_bool"
      },
      {
        "astId": 20035,
        "contract": "contracts/token/Fei.sol:Fei",
        "label": "incentiveContract",
        "offset": 0,
        "slot": "8",
        "type": "t_mapping(t_address,t_address)"
      },
      {
        "astId": 20037,
        "contract": "contracts/token/Fei.sol:Fei",
        "label": "DOMAIN_SEPARATOR",
        "offset": 0,
        "slot": "9",
        "type": "t_bytes32"
      },
      {
        "astId": 20044,
        "contract": "contracts/token/Fei.sol:Fei",
        "label": "nonces",
        "offset": 0,
        "slot": "10",
        "type": "t_mapping(t_address,t_uint256)"
      }
    ],
    "types": {
      "t_address": {
        "encoding": "inplace",
        "label": "address",
        "numberOfBytes": "20"
      },
      "t_bool": {
        "encoding": "inplace",
        "label": "bool",
        "numberOfBytes": "1"
      },
      "t_bytes32": {
        "encoding": "inplace",
        "label": "bytes32",
        "numberOfBytes": "32"
      },
      "t_contract(ICore)1201": {
        "encoding": "inplace",
        "label": "contract ICore",
        "numberOfBytes": "20"
      },
      "t_mapping(t_address,t_address)": {
        "encoding": "mapping",
        "key": "t_address",
        "label": "mapping(address => address)",
        "numberOfBytes": "32",
        "value": "t_address"
      },
      "t_mapping(t_address,t_mapping(t_address,t_uint256))": {
        "encoding": "mapping",
        "key": "t_address",
        "label": "mapping(address => mapping(address => uint256))",
        "numberOfBytes": "32",
        "value": "t_mapping(t_address,t_uint256)"
      },
      "t_mapping(t_address,t_uint256)": {
        "encoding": "mapping",
        "key": "t_address",
        "label": "mapping(address => uint256)",
        "numberOfBytes": "32",
        "value": "t_uint256"
      },
      "t_string_storage": {
        "encoding": "bytes",
        "label": "string",
        "numberOfBytes": "32"
      },
      "t_uint256": {
        "encoding": "inplace",
        "label": "uint256",
        "numberOfBytes": "32"
      }
    }
  }
}